{
  "address": "0x7E369a39855970C271658cd3C613422645FF9A28",
  "abi": [
    {
      "inputs": [
        {
          "internalType": "string",
          "name": "name",
          "type": "string"
        },
        {
          "internalType": "string",
          "name": "symbol",
          "type": "string"
        }
      ],
      "stateMutability": "nonpayable",
      "type": "constructor"
    },
    {
      "anonymous": false,
      "inputs": [
        {
          "indexed": true,
          "internalType": "address",
          "name": "owner",
          "type": "address"
        },
        {
          "indexed": true,
          "internalType": "address",
          "name": "approved",
          "type": "address"
        },
        {
          "indexed": true,
          "internalType": "uint256",
          "name": "tokenId",
          "type": "uint256"
        }
      ],
      "name": "Approval",
      "type": "event"
    },
    {
      "anonymous": false,
      "inputs": [
        {
          "indexed": true,
          "internalType": "address",
          "name": "owner",
          "type": "address"
        },
        {
          "indexed": true,
          "internalType": "address",
          "name": "operator",
          "type": "address"
        },
        {
          "indexed": false,
          "internalType": "bool",
          "name": "approved",
          "type": "bool"
        }
      ],
      "name": "ApprovalForAll",
      "type": "event"
    },
    {
      "anonymous": false,
      "inputs": [
        {
          "indexed": true,
          "internalType": "address",
          "name": "from",
          "type": "address"
        },
        {
          "indexed": true,
          "internalType": "address",
          "name": "to",
          "type": "address"
        },
        {
          "indexed": true,
          "internalType": "uint256",
          "name": "tokenId",
          "type": "uint256"
        }
      ],
      "name": "Transfer",
      "type": "event"
    },
    {
      "inputs": [
        {
          "internalType": "uint256",
          "name": "BidId",
          "type": "uint256"
        }
      ],
      "name": "BidURI",
      "outputs": [
        {
          "internalType": "string",
          "name": "",
          "type": "string"
        }
      ],
      "stateMutability": "view",
      "type": "function"
    },
    {
      "inputs": [],
      "name": "_EventTokenSearchIds",
      "outputs": [
        {
          "internalType": "uint256",
          "name": "",
          "type": "uint256"
        }
      ],
      "stateMutability": "view",
      "type": "function"
    },
    {
      "inputs": [
        {
          "internalType": "uint256",
          "name": "",
          "type": "uint256"
        },
        {
          "internalType": "uint256",
          "name": "",
          "type": "uint256"
        }
      ],
      "name": "_SearchedStore",
      "outputs": [
        {
          "internalType": "string",
          "name": "",
          "type": "string"
        }
      ],
      "stateMutability": "view",
      "type": "function"
    },
    {
      "inputs": [
        {
          "internalType": "uint256",
          "name": "_tokenId",
          "type": "uint256"
        }
      ],
      "name": "_getSearchedTokenURI",
      "outputs": [
        {
          "internalType": "string",
          "name": "",
          "type": "string"
        }
      ],
      "stateMutability": "view",
      "type": "function"
    },
    {
      "inputs": [
        {
          "internalType": "uint256",
          "name": "bidId",
          "type": "uint256"
        },
        {
          "internalType": "string",
          "name": "_bidURI",
          "type": "string"
        }
      ],
      "name": "_setBidURI",
      "outputs": [],
      "stateMutability": "nonpayable",
      "type": "function"
    },
    {
      "inputs": [
        {
          "internalType": "uint256",
          "name": "eventId",
          "type": "uint256"
        },
        {
          "internalType": "string",
          "name": "_eventURI",
          "type": "string"
        }
      ],
      "name": "_setEventURI",
      "outputs": [],
      "stateMutability": "nonpayable",
      "type": "function"
    },
    {
      "inputs": [
        {
          "internalType": "uint256",
          "name": "TokenBidId",
          "type": "uint256"
        },
        {
          "internalType": "uint256",
          "name": "TokenId",
          "type": "uint256"
        },
        {
          "internalType": "string",
          "name": "_BidURI",
          "type": "string"
        }
      ],
      "name": "_setTokenBid",
      "outputs": [],
      "stateMutability": "nonpayable",
      "type": "function"
    },
    {
      "inputs": [
        {
          "internalType": "uint256",
          "name": "EventTokenId",
          "type": "uint256"
        },
        {
          "internalType": "uint256",
          "name": "EventId",
          "type": "uint256"
        },
        {
          "internalType": "string",
          "name": "_tokenURI",
          "type": "string"
        }
      ],
      "name": "_setTokenEvent",
      "outputs": [],
      "stateMutability": "nonpayable",
      "type": "function"
    },
    {
      "inputs": [
        {
          "internalType": "uint256",
          "name": "tokenId",
          "type": "uint256"
        },
        {
          "internalType": "string",
          "name": "_tokenURI",
          "type": "string"
        }
      ],
      "name": "_setTokenURI",
      "outputs": [],
      "stateMutability": "nonpayable",
      "type": "function"
    },
    {
      "inputs": [
        {
          "internalType": "address",
          "name": "to",
          "type": "address"
        },
        {
          "internalType": "uint256",
          "name": "tokenId",
          "type": "uint256"
        }
      ],
      "name": "approve",
      "outputs": [],
      "stateMutability": "nonpayable",
      "type": "function"
    },
    {
      "inputs": [
        {
          "internalType": "address",
          "name": "owner",
          "type": "address"
        }
      ],
      "name": "balanceOf",
      "outputs": [
        {
          "internalType": "uint256",
          "name": "",
          "type": "uint256"
        }
      ],
      "stateMutability": "view",
      "type": "function"
    },
    {
      "inputs": [
        {
          "internalType": "address",
          "name": "_claimer",
          "type": "address"
        },
        {
          "internalType": "string",
          "name": "_tokenURI",
          "type": "string"
        },
        {
          "internalType": "uint256",
          "name": "_eventid",
          "type": "uint256"
        }
      ],
      "name": "claimToken",
      "outputs": [
        {
          "internalType": "uint256",
          "name": "",
          "type": "uint256"
        }
      ],
      "stateMutability": "nonpayable",
      "type": "function"
    },
    {
      "inputs": [
        {
          "internalType": "uint256",
          "name": "_tokenId",
          "type": "uint256"
        },
        {
          "internalType": "string",
          "name": "_bidURI",
          "type": "string"
        },
        {
          "internalType": "string",
          "name": "_updatedURI",
          "type": "string"
        },
        {
          "internalType": "uint256",
          "name": "_eventid",
          "type": "uint256"
        }
      ],
      "name": "createBid",
      "outputs": [],
      "stateMutability": "nonpayable",
      "type": "function"
    },
    {
      "inputs": [
        {
          "internalType": "string",
          "name": "_eventURI",
          "type": "string"
        }
      ],
      "name": "createEvent",
      "outputs": [
        {
          "internalType": "uint256",
          "name": "",
          "type": "uint256"
        }
      ],
      "stateMutability": "nonpayable",
      "type": "function"
    },
    {
      "inputs": [
        {
          "internalType": "uint256",
          "name": "eventId",
          "type": "uint256"
        }
      ],
      "name": "eventURI",
      "outputs": [
        {
          "internalType": "string",
          "name": "",
          "type": "string"
        }
      ],
      "stateMutability": "view",
      "type": "function"
    },
    {
      "inputs": [
        {
          "internalType": "uint256",
          "name": "tokenId",
          "type": "uint256"
        }
      ],
      "name": "getApproved",
      "outputs": [
        {
          "internalType": "address",
          "name": "",
          "type": "address"
        }
      ],
      "stateMutability": "view",
      "type": "function"
    },
    {
      "inputs": [
        {
          "internalType": "string",
          "name": "_bidURI",
          "type": "string"
        }
      ],
      "name": "getBidIdByUri",
      "outputs": [
        {
          "internalType": "uint256",
          "name": "",
          "type": "uint256"
        }
      ],
      "stateMutability": "view",
      "type": "function"
    },
    {
      "inputs": [
        {
          "internalType": "uint256",
          "name": "TokenID",
          "type": "uint256"
        }
      ],
      "name": "getBidsSearchToken",
      "outputs": [
        {
          "internalType": "string[]",
          "name": "",
          "type": "string[]"
        }
      ],
      "stateMutability": "view",
      "type": "function"
    },
    {
      "inputs": [
        {
          "internalType": "uint256",
          "name": "EventId",
          "type": "uint256"
        },
        {
          "internalType": "string",
          "name": "_tokenURI",
          "type": "string"
        }
      ],
      "name": "getGetEventsTokenID",
      "outputs": [
        {
          "internalType": "uint256",
          "name": "",
          "type": "uint256"
        }
      ],
      "stateMutability": "view",
      "type": "function"
    },
    {
      "inputs": [
        {
          "internalType": "uint256",
          "name": "TokenID",
          "type": "uint256"
        }
      ],
      "name": "getTotalBid",
      "outputs": [
        {
          "internalType": "string[]",
          "name": "",
          "type": "string[]"
        }
      ],
      "stateMutability": "view",
      "type": "function"
    },
    {
      "inputs": [
        {
          "internalType": "string",
          "name": "_tokenURI",
          "type": "string"
        }
      ],
      "name": "gettokenIdByUri",
      "outputs": [
        {
          "internalType": "uint256",
          "name": "",
          "type": "uint256"
        }
      ],
      "stateMutability": "view",
      "type": "function"
    },
    {
      "inputs": [
        {
          "internalType": "uint256",
          "name": "EventID",
          "type": "uint256"
        }
      ],
      "name": "gettokenSearchEventTotal",
      "outputs": [
        {
          "internalType": "string[]",
          "name": "",
          "type": "string[]"
        }
      ],
      "stateMutability": "view",
      "type": "function"
    },
    {
      "inputs": [
        {
          "internalType": "address",
          "name": "owner",
          "type": "address"
        },
        {
          "internalType": "address",
          "name": "operator",
          "type": "address"
        }
      ],
      "name": "isApprovedForAll",
      "outputs": [
        {
          "internalType": "bool",
          "name": "",
          "type": "bool"
        }
      ],
      "stateMutability": "view",
      "type": "function"
    },
    {
      "inputs": [],
      "name": "name",
      "outputs": [
        {
          "internalType": "string",
          "name": "",
          "type": "string"
        }
      ],
      "stateMutability": "view",
      "type": "function"
    },
    {
      "inputs": [
        {
          "internalType": "uint256",
          "name": "tokenId",
          "type": "uint256"
        }
      ],
      "name": "ownerOf",
      "outputs": [
        {
          "internalType": "address",
          "name": "",
          "type": "address"
        }
      ],
      "stateMutability": "view",
      "type": "function"
    },
    {
      "inputs": [
        {
          "internalType": "address",
          "name": "from",
          "type": "address"
        },
        {
          "internalType": "address",
          "name": "to",
          "type": "address"
        },
        {
          "internalType": "uint256",
          "name": "tokenId",
          "type": "uint256"
        }
      ],
      "name": "safeTransferFrom",
      "outputs": [],
      "stateMutability": "nonpayable",
      "type": "function"
    },
    {
      "inputs": [
        {
          "internalType": "address",
          "name": "from",
          "type": "address"
        },
        {
          "internalType": "address",
          "name": "to",
          "type": "address"
        },
        {
          "internalType": "uint256",
          "name": "tokenId",
          "type": "uint256"
        },
        {
          "internalType": "bytes",
          "name": "_data",
          "type": "bytes"
        }
      ],
      "name": "safeTransferFrom",
      "outputs": [],
      "stateMutability": "nonpayable",
      "type": "function"
    },
    {
      "inputs": [
        {
          "internalType": "address",
          "name": "operator",
          "type": "address"
        },
        {
          "internalType": "bool",
          "name": "approved",
          "type": "bool"
        }
      ],
      "name": "setApprovalForAll",
      "outputs": [],
      "stateMutability": "nonpayable",
      "type": "function"
    },
    {
      "inputs": [
        {
          "internalType": "bytes4",
          "name": "interfaceId",
          "type": "bytes4"
        }
      ],
      "name": "supportsInterface",
      "outputs": [
        {
          "internalType": "bool",
          "name": "",
          "type": "bool"
        }
      ],
      "stateMutability": "view",
      "type": "function"
    },
    {
      "inputs": [],
      "name": "symbol",
      "outputs": [
        {
          "internalType": "string",
          "name": "",
          "type": "string"
        }
      ],
      "stateMutability": "view",
      "type": "function"
    },
    {
      "inputs": [
        {
          "internalType": "uint256",
          "name": "tokenId",
          "type": "uint256"
        }
      ],
      "name": "tokenURI",
      "outputs": [
        {
          "internalType": "string",
          "name": "",
          "type": "string"
        }
      ],
      "stateMutability": "view",
      "type": "function"
    },
    {
      "inputs": [],
      "name": "totalEvent",
      "outputs": [
        {
          "internalType": "uint256",
          "name": "",
          "type": "uint256"
        }
      ],
      "stateMutability": "view",
      "type": "function"
    },
    {
      "inputs": [],
      "name": "totalSupply",
      "outputs": [
        {
          "internalType": "uint256",
          "name": "",
          "type": "uint256"
        }
      ],
      "stateMutability": "view",
      "type": "function"
    },
    {
      "inputs": [
        {
          "internalType": "address",
          "name": "from",
          "type": "address"
        },
        {
          "internalType": "address",
          "name": "to",
          "type": "address"
        },
        {
          "internalType": "uint256",
          "name": "tokenId",
          "type": "uint256"
        }
      ],
      "name": "transferFrom",
      "outputs": [],
      "stateMutability": "nonpayable",
      "type": "function"
    }
  ],
  "transactionHash": "0x8761d7d122e2aae22326727bb7d78b901e853704795c392ceae21c6a860f9996",
  "args": [
    "CUSD",
    "cUSD"
  ],
  "numDeployments": 1,
  "solcInputHash": "94309061c54aec5ac884f29aaa7b3288",
  "bytecode": "0x60806040523480156200001157600080fd5b5060405162004212380380620042128339818101604052810190620000379190620001a3565b818181600090805190602001906200005192919062000075565b5080600190805190602001906200006a92919062000075565b5050505050620003ac565b8280546200008390620002bd565b90600052602060002090601f016020900481019282620000a75760008555620000f3565b82601f10620000c257805160ff1916838001178555620000f3565b82800160010185558215620000f3579182015b82811115620000f2578251825591602001919060010190620000d5565b5b50905062000102919062000106565b5090565b5b808211156200012157600081600090555060010162000107565b5090565b60006200013c620001368462000251565b62000228565b9050828152602081018484840111156200015b576200015a6200038c565b5b6200016884828562000287565b509392505050565b600082601f83011262000188576200018762000387565b5b81516200019a84826020860162000125565b91505092915050565b60008060408385031215620001bd57620001bc62000396565b5b600083015167ffffffffffffffff811115620001de57620001dd62000391565b5b620001ec8582860162000170565b925050602083015167ffffffffffffffff81111562000210576200020f62000391565b5b6200021e8582860162000170565b9150509250929050565b60006200023462000247565b9050620002428282620002f3565b919050565b6000604051905090565b600067ffffffffffffffff8211156200026f576200026e62000358565b5b6200027a826200039b565b9050602081019050919050565b60005b83811015620002a75780820151818401526020810190506200028a565b83811115620002b7576000848401525b50505050565b60006002820490506001821680620002d657607f821691505b60208210811415620002ed57620002ec62000329565b5b50919050565b620002fe826200039b565b810181811067ffffffffffffffff8211171562000320576200031f62000358565b5b80604052505050565b7f4e487b7100000000000000000000000000000000000000000000000000000000600052602260045260246000fd5b7f4e487b7100000000000000000000000000000000000000000000000000000000600052604160045260246000fd5b600080fd5b600080fd5b600080fd5b600080fd5b6000601f19601f8301169050919050565b613e5680620003bc6000396000f3fe608060405234801561001057600080fd5b50600436106102065760003560e01c806370a082311161011a578063aed47961116100ad578063d45fc5161161007c578063d45fc5161461066d578063d654e9931461069d578063e08033d3146106b9578063e985e9c5146106d5578063eb1d234d1461070557610206565b8063aed47961146105c1578063b10a5dfa146105f1578063b88d4fde14610621578063c87b56dd1461063d57610206565b806395d89b41116100e957806395d89b41146105275780639bc2bc7114610545578063a0fd0c6a14610575578063a22cb465146105a557610206565b806370a08231146104795780637cedbc1e146104a95780637eadfa6a146104d9578063932a196b146104f757610206565b80631cd043d61161019d5780633592dd801161016c5780633592dd80146103b157806342842e0e146103cd578063446a92e3146103e95780635154380a146104195780636352211e1461044957610206565b80631cd043d61461031957806323b872dd1461033557806328520ab71461035157806335011d901461038157610206565b8063095ea7b3116101d9578063095ea7b3146102a55780630da3c49c146102c1578063144cbca6146102dd57806318160ddd146102fb57610206565b8063015388681461020b57806301ffc9a71461022757806306fdde0314610257578063081812fc14610275575b600080fd5b61022560048036038101906102209190612c9f565b610735565b005b610241600480360381019061023c9190612bcf565b6107a9565b60405161024e91906132d6565b60405180910390f35b61025f61088b565b60405161026c91906132f1565b60405180910390f35b61028f600480360381019061028a9190612c72565b61091d565b60405161029c919061324d565b60405180910390f35b6102bf60048036038101906102ba9190612b8f565b6109a2565b005b6102db60048036038101906102d69190612cfb565b610aba565b005b6102e5610bda565b6040516102f291906134f3565b60405180910390f35b610303610be0565b60405161031091906134f3565b60405180910390f35b610333600480360381019061032e9190612c9f565b610bea565b005b61034f600480360381019061034a9190612a0a565b610c16565b005b61036b60048036038101906103669190612c9f565b610c76565b60405161037891906134f3565b60405180910390f35b61039b60048036038101906103969190612b20565b610d4f565b6040516103a891906134f3565b60405180910390f35b6103cb60048036038101906103c69190612dda565b610db2565b005b6103e760048036038101906103e29190612a0a565b610df6565b005b61040360048036038101906103fe9190612c72565b610e16565b60405161041091906132f1565b60405180910390f35b610433600480360381019061042e9190612c72565b610ebb565b60405161044091906132b4565b60405180910390f35b610463600480360381019061045e9190612c72565b61106b565b604051610470919061324d565b60405180910390f35b610493600480360381019061048e919061299d565b61111d565b6040516104a091906134f3565b60405180910390f35b6104c360048036038101906104be9190612c72565b6111d5565b6040516104d091906132f1565b60405180910390f35b6104e161128e565b6040516104ee91906134f3565b60405180910390f35b610511600480360381019061050c9190612c29565b611298565b60405161051e91906134f3565b60405180910390f35b61052f611307565b60405161053c91906132f1565b60405180910390f35b61055f600480360381019061055a9190612c29565b611399565b60405161056c91906134f3565b60405180910390f35b61058f600480360381019061058a9190612c72565b6113c9565b60405161059c91906132f1565b60405180910390f35b6105bf60048036038101906105ba9190612ae0565b61146e565b005b6105db60048036038101906105d69190612c72565b611484565b6040516105e891906132b4565b60405180910390f35b61060b60048036038101906106069190612d9a565b611634565b60405161061891906132f1565b60405180910390f35b61063b60048036038101906106369190612a5d565b6116e4565b005b61065760048036038101906106529190612c72565b611746565b60405161066491906132f1565b60405180910390f35b61068760048036038101906106829190612c29565b611833565b60405161069491906134f3565b60405180910390f35b6106b760048036038101906106b29190612dda565b6118a2565b005b6106d360048036038101906106ce9190612c9f565b6118e6565b005b6106ef60048036038101906106ea91906129ca565b611912565b6040516106fc91906132d6565b60405180910390f35b61071f600480360381019061071a9190612c72565b6119a6565b60405161072c91906132b4565b60405180910390f35b61073e82611b56565b61077d576040517f08c379a000000000000000000000000000000000000000000000000000000000815260040161077490613473565b60405180910390fd5b806012600084815260200190815260200160002090805190602001906107a49291906126fa565b505050565b60007f80ac58cd000000000000000000000000000000000000000000000000000000007bffffffffffffffffffffffffffffffffffffffffffffffffffffffff1916827bffffffffffffffffffffffffffffffffffffffffffffffffffffffff1916148061087457507f5b5e139f000000000000000000000000000000000000000000000000000000007bffffffffffffffffffffffffffffffffffffffffffffffffffffffff1916827bffffffffffffffffffffffffffffffffffffffffffffffffffffffff1916145b80610884575061088382611bc2565b5b9050919050565b60606000805461089a906137a8565b80601f01602080910402602001604051908101604052809291908181526020018280546108c6906137a8565b80156109135780601f106108e857610100808354040283529160200191610913565b820191906000526020600020905b8154815290600101906020018083116108f657829003601f168201915b5050505050905090565b600061092882611b56565b610967576040517f08c379a000000000000000000000000000000000000000000000000000000000815260040161095e90613453565b60405180910390fd5b6004600083815260200190815260200160002060009054906101000a900473ffffffffffffffffffffffffffffffffffffffff169050919050565b60006109ad8261106b565b90508073ffffffffffffffffffffffffffffffffffffffff168373ffffffffffffffffffffffffffffffffffffffff161415610a1e576040517f08c379a0000000000000000000000000000000000000000000000000000000008152600401610a15906134b3565b60405180910390fd5b8073ffffffffffffffffffffffffffffffffffffffff16610a3d611c2c565b73ffffffffffffffffffffffffffffffffffffffff161480610a6c5750610a6b81610a66611c2c565b611912565b5b610aab576040517f08c379a0000000000000000000000000000000000000000000000000000000008152600401610aa2906133d3565b60405180910390fd5b610ab58383611c34565b505050565b6000610b6182601260008881526020019081526020016000208054610ade906137a8565b80601f0160208091040260200160405190810160405280929190818152602001828054610b0a906137a8565b8015610b575780601f10610b2c57610100808354040283529160200191610b57565b820191906000526020600020905b815481529060010190602001808311610b3a57829003601f168201915b5050505050610c76565b905082601260008781526020019081526020016000209080519060200190610b8a9291906126fa565b50610b96818385610db2565b610ba3600a5486866118a2565b600a6000815480929190610bb69061380b565b919050555060076000815480929190610bce9061380b565b91905055505050505050565b600d5481565b6000600654905090565b80601360008481526020019081526020016000209080519060200190610c119291906126fa565b505050565b610c27610c21611c2c565b82611ced565b610c66576040517f08c379a0000000000000000000000000000000000000000000000000000000008152600401610c5d906134d3565b60405180910390fd5b610c71838383611dcb565b505050565b600080600090505b600954811015610d4357610c9184612032565b80519060200120600e6000838152602001908152602001600020600060028110610cbe57610cbd613912565b5b01604051610ccc9190613236565b6040518091039020148015610d2257508280519060200120600e6000838152602001908152602001600020600160028110610d0a57610d09613912565b5b01604051610d189190613236565b6040518091039020145b15610d305780915050610d49565b8080610d3b9061380b565b915050610c7e565b50600090505b92915050565b6000610d5d84600654612193565b610d6960065484610735565b610d766009548385610db2565b60066000815480929190610d899061380b565b919050555060096000815480929190610da19061380b565b919050555060065490509392505050565b6040518060400160405280610dc684612032565b815260200182815250600e6000858152602001908152602001600020906002610df0929190612780565b50505050565b610e11838383604051806020016040528060008152506116e4565b505050565b6060601160008381526020019081526020016000208054610e36906137a8565b80601f0160208091040260200160405190810160405280929190818152602001828054610e62906137a8565b8015610eaf5780601f10610e8457610100808354040283529160200191610eaf565b820191906000526020600020905b815481529060010190602001808311610e9257829003601f168201915b50505050509050919050565b60606000600a67ffffffffffffffff811115610eda57610ed9613941565b5b604051908082528060200260200182016040528015610f0d57816020015b6060815260200190600190039081610ef85790505b5090506000805b600a5481101561106057610f2785612032565b80519060200120600f6000838152602001908152602001600020600060028110610f5457610f53613912565b5b01604051610f629190613236565b6040518091039020141561104d57600f6000828152602001908152602001600020600160028110610f9657610f95613912565b5b018054610fa2906137a8565b80601f0160208091040260200160405190810160405280929190818152602001828054610fce906137a8565b801561101b5780601f10610ff05761010080835404028352916020019161101b565b820191906000526020600020905b815481529060010190602001808311610ffe57829003601f168201915b505050505083838151811061103357611032613912565b5b602002602001018190525081806110499061380b565b9250505b80806110589061380b565b915050610f14565b508192505050919050565b6000806002600084815260200190815260200160002060009054906101000a900473ffffffffffffffffffffffffffffffffffffffff169050600073ffffffffffffffffffffffffffffffffffffffff168173ffffffffffffffffffffffffffffffffffffffff161415611114576040517f08c379a000000000000000000000000000000000000000000000000000000000815260040161110b90613413565b60405180910390fd5b80915050919050565b60008073ffffffffffffffffffffffffffffffffffffffff168273ffffffffffffffffffffffffffffffffffffffff16141561118e576040517f08c379a0000000000000000000000000000000000000000000000000000000008152600401611185906133f3565b60405180910390fd5b600360008373ffffffffffffffffffffffffffffffffffffffff1673ffffffffffffffffffffffffffffffffffffffff168152602001908152602001600020549050919050565b6060601060008381526020019081526020016000206000600281106111fd576111fc613912565b5b018054611209906137a8565b80601f0160208091040260200160405190810160405280929190818152602001828054611235906137a8565b80156112825780601f1061125757610100808354040283529160200191611282565b820191906000526020600020905b81548152906001019060200180831161126557829003601f168201915b50505050509050919050565b6000600854905090565b600080600090505b6006548110156112fc578280519060200120601260008381526020019081526020016000206040516112d29190613236565b604051809103902014156112e95780915050611302565b80806112f49061380b565b9150506112a0565b50600090505b919050565b606060018054611316906137a8565b80601f0160208091040260200160405190810160405280929190818152602001828054611342906137a8565b801561138f5780601f106113645761010080835404028352916020019161138f565b820191906000526020600020905b81548152906001019060200180831161137257829003601f168201915b5050505050905090565b60006113a760085483610bea565b600860008154809291906113ba9061380b565b91905055506008549050919050565b60606013600083815260200190815260200160002080546113e9906137a8565b80601f0160208091040260200160405190810160405280929190818152602001828054611415906137a8565b80156114625780601f1061143757610100808354040283529160200191611462565b820191906000526020600020905b81548152906001019060200180831161144557829003601f168201915b50505050509050919050565b611480611479611c2c565b838361236d565b5050565b60606000600a67ffffffffffffffff8111156114a3576114a2613941565b5b6040519080825280602002602001820160405280156114d657816020015b60608152602001906001900390816114c15790505b5090506000805b600a54811015611629576114f085612032565b80519060200120600f600083815260200190815260200160002060006002811061151d5761151c613912565b5b0160405161152b9190613236565b6040518091039020141561161657600f600082815260200190815260200160002060016002811061155f5761155e613912565b5b01805461156b906137a8565b80601f0160208091040260200160405190810160405280929190818152602001828054611597906137a8565b80156115e45780601f106115b9576101008083540402835291602001916115e4565b820191906000526020600020905b8154815290600101906020018083116115c757829003601f168201915b50505050508383815181106115fc576115fb613912565b5b602002602001018190525081806116129061380b565b9250505b80806116219061380b565b9150506114dd565b508192505050919050565b6010602052816000526040600020816002811061165057600080fd5b01600091509150508054611663906137a8565b80601f016020809104026020016040519081016040528092919081815260200182805461168f906137a8565b80156116dc5780601f106116b1576101008083540402835291602001916116dc565b820191906000526020600020905b8154815290600101906020018083116116bf57829003601f168201915b505050505081565b6116f56116ef611c2c565b83611ced565b611734576040517f08c379a000000000000000000000000000000000000000000000000000000000815260040161172b906134d3565b60405180910390fd5b611740848484846124da565b50505050565b606061175182611b56565b611790576040517f08c379a000000000000000000000000000000000000000000000000000000000815260040161178790613493565b60405180910390fd5b6012600083815260200190815260200160002080546117ae906137a8565b80601f01602080910402602001604051908101604052809291908181526020018280546117da906137a8565b80156118275780601f106117fc57610100808354040283529160200191611827565b820191906000526020600020905b81548152906001019060200180831161180a57829003601f168201915b50505050509050919050565b600080600090505b6007548110156118975782805190602001206011600083815260200190815260200160002060405161186d9190613236565b60405180910390201415611884578091505061189d565b808061188f9061380b565b91505061183b565b50600090505b919050565b60405180604001604052806118b684612032565b815260200182815250600f60008581526020019081526020016000209060026118e0929190612780565b50505050565b8060116000848152602001908152602001600020908051906020019061190d9291906126fa565b505050565b6000600560008473ffffffffffffffffffffffffffffffffffffffff1673ffffffffffffffffffffffffffffffffffffffff16815260200190815260200160002060008373ffffffffffffffffffffffffffffffffffffffff1673ffffffffffffffffffffffffffffffffffffffff16815260200190815260200160002060009054906101000a900460ff16905092915050565b60606000600a67ffffffffffffffff8111156119c5576119c4613941565b5b6040519080825280602002602001820160405280156119f857816020015b60608152602001906001900390816119e35790505b5090506000805b600954811015611b4b57611a1285612032565b80519060200120600e6000838152602001908152602001600020600060028110611a3f57611a3e613912565b5b01604051611a4d9190613236565b60405180910390201415611b3857600e6000828152602001908152602001600020600160028110611a8157611a80613912565b5b018054611a8d906137a8565b80601f0160208091040260200160405190810160405280929190818152602001828054611ab9906137a8565b8015611b065780601f10611adb57610100808354040283529160200191611b06565b820191906000526020600020905b815481529060010190602001808311611ae957829003601f168201915b5050505050838381518110611b1e57611b1d613912565b5b60200260200101819052508180611b349061380b565b9250505b8080611b439061380b565b9150506119ff565b508192505050919050565b60008073ffffffffffffffffffffffffffffffffffffffff166002600084815260200190815260200160002060009054906101000a900473ffffffffffffffffffffffffffffffffffffffff1673ffffffffffffffffffffffffffffffffffffffff1614159050919050565b60007f01ffc9a7000000000000000000000000000000000000000000000000000000007bffffffffffffffffffffffffffffffffffffffffffffffffffffffff1916827bffffffffffffffffffffffffffffffffffffffffffffffffffffffff1916149050919050565b600033905090565b816004600083815260200190815260200160002060006101000a81548173ffffffffffffffffffffffffffffffffffffffff021916908373ffffffffffffffffffffffffffffffffffffffff160217905550808273ffffffffffffffffffffffffffffffffffffffff16611ca78361106b565b73ffffffffffffffffffffffffffffffffffffffff167f8c5be1e5ebec7d5bd14f71427d1e84f3dd0314c0f7b2291e5b200ac8c7c3b92560405160405180910390a45050565b6000611cf882611b56565b611d37576040517f08c379a0000000000000000000000000000000000000000000000000000000008152600401611d2e906133b3565b60405180910390fd5b6000611d428361106b565b90508073ffffffffffffffffffffffffffffffffffffffff168473ffffffffffffffffffffffffffffffffffffffff161480611db157508373ffffffffffffffffffffffffffffffffffffffff16611d998461091d565b73ffffffffffffffffffffffffffffffffffffffff16145b80611dc25750611dc18185611912565b5b91505092915050565b8273ffffffffffffffffffffffffffffffffffffffff16611deb8261106b565b73ffffffffffffffffffffffffffffffffffffffff1614611e41576040517f08c379a0000000000000000000000000000000000000000000000000000000008152600401611e3890613333565b60405180910390fd5b600073ffffffffffffffffffffffffffffffffffffffff168273ffffffffffffffffffffffffffffffffffffffff161415611eb1576040517f08c379a0000000000000000000000000000000000000000000000000000000008152600401611ea890613373565b60405180910390fd5b611ebc838383612536565b611ec7600082611c34565b6001600360008573ffffffffffffffffffffffffffffffffffffffff1673ffffffffffffffffffffffffffffffffffffffff1681526020019081526020016000206000828254611f1791906136be565b925050819055506001600360008473ffffffffffffffffffffffffffffffffffffffff1673ffffffffffffffffffffffffffffffffffffffff1681526020019081526020016000206000828254611f6e9190613637565b92505081905550816002600083815260200190815260200160002060006101000a81548173ffffffffffffffffffffffffffffffffffffffff021916908373ffffffffffffffffffffffffffffffffffffffff160217905550808273ffffffffffffffffffffffffffffffffffffffff168473ffffffffffffffffffffffffffffffffffffffff167fddf252ad1be2c89b69c2b068fc378daa952ba7f163c4a11628f55a4df523b3ef60405160405180910390a461202d83838361253b565b505050565b6060600082141561207a576040518060400160405280600181526020017f3000000000000000000000000000000000000000000000000000000000000000815250905061218e565b600082905060005b600082146120ac5780806120959061380b565b915050600a826120a5919061368d565b9150612082565b60008167ffffffffffffffff8111156120c8576120c7613941565b5b6040519080825280601f01601f1916602001820160405280156120fa5781602001600182028036833780820191505090505b5090505b600085146121875760018261211391906136be565b9150600a856121229190613854565b603061212e9190613637565b60f81b81838151811061214457612143613912565b5b60200101907effffffffffffffffffffffffffffffffffffffffffffffffffffffffffffff1916908160001a905350600a85612180919061368d565b94506120fe565b8093505050505b919050565b600073ffffffffffffffffffffffffffffffffffffffff168273ffffffffffffffffffffffffffffffffffffffff161415612203576040517f08c379a00000000000000000000000000000000000000000000000000000000081526004016121fa90613433565b60405180910390fd5b61220c81611b56565b1561224c576040517f08c379a000000000000000000000000000000000000000000000000000000000815260040161224390613353565b60405180910390fd5b61225860008383612536565b6001600360008473ffffffffffffffffffffffffffffffffffffffff1673ffffffffffffffffffffffffffffffffffffffff16815260200190815260200160002060008282546122a89190613637565b92505081905550816002600083815260200190815260200160002060006101000a81548173ffffffffffffffffffffffffffffffffffffffff021916908373ffffffffffffffffffffffffffffffffffffffff160217905550808273ffffffffffffffffffffffffffffffffffffffff16600073ffffffffffffffffffffffffffffffffffffffff167fddf252ad1be2c89b69c2b068fc378daa952ba7f163c4a11628f55a4df523b3ef60405160405180910390a46123696000838361253b565b5050565b8173ffffffffffffffffffffffffffffffffffffffff168373ffffffffffffffffffffffffffffffffffffffff1614156123dc576040517f08c379a00000000000000000000000000000000000000000000000000000000081526004016123d390613393565b60405180910390fd5b80600560008573ffffffffffffffffffffffffffffffffffffffff1673ffffffffffffffffffffffffffffffffffffffff16815260200190815260200160002060008473ffffffffffffffffffffffffffffffffffffffff1673ffffffffffffffffffffffffffffffffffffffff16815260200190815260200160002060006101000a81548160ff0219169083151502179055508173ffffffffffffffffffffffffffffffffffffffff168373ffffffffffffffffffffffffffffffffffffffff167f17307eab39ab6107e8899845ad3d59bd9653f200f220920489ca2b5937696c31836040516124cd91906132d6565b60405180910390a3505050565b6124e5848484611dcb565b6124f184848484612540565b612530576040517f08c379a000000000000000000000000000000000000000000000000000000000815260040161252790613313565b60405180910390fd5b50505050565b505050565b505050565b60006125618473ffffffffffffffffffffffffffffffffffffffff166126d7565b156126ca578373ffffffffffffffffffffffffffffffffffffffff1663150b7a0261258a611c2c565b8786866040518563ffffffff1660e01b81526004016125ac9493929190613268565b602060405180830381600087803b1580156125c657600080fd5b505af19250505080156125f757506040513d601f19601f820116820180604052508101906125f49190612bfc565b60015b61267a573d8060008114612627576040519150601f19603f3d011682016040523d82523d6000602084013e61262c565b606091505b50600081511415612672576040517f08c379a000000000000000000000000000000000000000000000000000000000815260040161266990613313565b60405180910390fd5b805181602001fd5b63150b7a0260e01b7bffffffffffffffffffffffffffffffffffffffffffffffffffffffff1916817bffffffffffffffffffffffffffffffffffffffffffffffffffffffff1916149150506126cf565b600190505b949350505050565b6000808273ffffffffffffffffffffffffffffffffffffffff163b119050919050565b828054612706906137a8565b90600052602060002090601f016020900481019282612728576000855561276f565b82601f1061274157805160ff191683800117855561276f565b8280016001018555821561276f579182015b8281111561276e578251825591602001919060010190612753565b5b50905061277c91906127d3565b5090565b82600281019282156127c2579160200282015b828111156127c15782518290805190602001906127b19291906126fa565b5091602001919060010190612793565b5b5090506127cf91906127f0565b5090565b5b808211156127ec5760008160009055506001016127d4565b5090565b5b8082111561281057600081816128079190612814565b506001016127f1565b5090565b508054612820906137a8565b6000825580601f106128325750612851565b601f01602090049060005260206000209081019061285091906127d3565b5b50565b600061286761286284613533565b61350e565b90508281526020810184848401111561288357612882613975565b5b61288e848285613766565b509392505050565b60006128a96128a484613564565b61350e565b9050828152602081018484840111156128c5576128c4613975565b5b6128d0848285613766565b509392505050565b6000813590506128e781613dc4565b92915050565b6000813590506128fc81613ddb565b92915050565b60008135905061291181613df2565b92915050565b60008151905061292681613df2565b92915050565b600082601f83011261294157612940613970565b5b8135612951848260208601612854565b91505092915050565b600082601f83011261296f5761296e613970565b5b813561297f848260208601612896565b91505092915050565b60008135905061299781613e09565b92915050565b6000602082840312156129b3576129b261397f565b5b60006129c1848285016128d8565b91505092915050565b600080604083850312156129e1576129e061397f565b5b60006129ef858286016128d8565b9250506020612a00858286016128d8565b9150509250929050565b600080600060608486031215612a2357612a2261397f565b5b6000612a31868287016128d8565b9350506020612a42868287016128d8565b9250506040612a5386828701612988565b9150509250925092565b60008060008060808587031215612a7757612a7661397f565b5b6000612a85878288016128d8565b9450506020612a96878288016128d8565b9350506040612aa787828801612988565b925050606085013567ffffffffffffffff811115612ac857612ac761397a565b5b612ad48782880161292c565b91505092959194509250565b60008060408385031215612af757612af661397f565b5b6000612b05858286016128d8565b9250506020612b16858286016128ed565b9150509250929050565b600080600060608486031215612b3957612b3861397f565b5b6000612b47868287016128d8565b935050602084013567ffffffffffffffff811115612b6857612b6761397a565b5b612b748682870161295a565b9250506040612b8586828701612988565b9150509250925092565b60008060408385031215612ba657612ba561397f565b5b6000612bb4858286016128d8565b9250506020612bc585828601612988565b9150509250929050565b600060208284031215612be557612be461397f565b5b6000612bf384828501612902565b91505092915050565b600060208284031215612c1257612c1161397f565b5b6000612c2084828501612917565b91505092915050565b600060208284031215612c3f57612c3e61397f565b5b600082013567ffffffffffffffff811115612c5d57612c5c61397a565b5b612c698482850161295a565b91505092915050565b600060208284031215612c8857612c8761397f565b5b6000612c9684828501612988565b91505092915050565b60008060408385031215612cb657612cb561397f565b5b6000612cc485828601612988565b925050602083013567ffffffffffffffff811115612ce557612ce461397a565b5b612cf18582860161295a565b9150509250929050565b60008060008060808587031215612d1557612d1461397f565b5b6000612d2387828801612988565b945050602085013567ffffffffffffffff811115612d4457612d4361397a565b5b612d508782880161295a565b935050604085013567ffffffffffffffff811115612d7157612d7061397a565b5b612d7d8782880161295a565b9250506060612d8e87828801612988565b91505092959194509250565b60008060408385031215612db157612db061397f565b5b6000612dbf85828601612988565b9250506020612dd085828601612988565b9150509250929050565b600080600060608486031215612df357612df261397f565b5b6000612e0186828701612988565b9350506020612e1286828701612988565b925050604084013567ffffffffffffffff811115612e3357612e3261397a565b5b612e3f8682870161295a565b9150509250925092565b6000612e558383612fa8565b905092915050565b612e66816136f2565b82525050565b6000612e77826135ba565b612e8181856135e8565b935083602082028501612e9385613595565b8060005b85811015612ecf5784840389528151612eb08582612e49565b9450612ebb836135db565b925060208a01995050600181019050612e97565b50829750879550505050505092915050565b612eea81613704565b82525050565b6000612efb826135c5565b612f0581856135f9565b9350612f15818560208601613775565b612f1e81613984565b840191505092915050565b60008154612f36816137a8565b612f40818661360a565b94506001821660008114612f5b5760018114612f6c57612f9f565b60ff19831686528186019350612f9f565b612f75856135a5565b60005b83811015612f9757815481890152600182019150602081019050612f78565b838801955050505b50505092915050565b6000612fb3826135d0565b612fbd8185613615565b9350612fcd818560208601613775565b612fd681613984565b840191505092915050565b6000612fec826135d0565b612ff68185613626565b9350613006818560208601613775565b61300f81613984565b840191505092915050565b6000613027603283613626565b915061303282613995565b604082019050919050565b600061304a602583613626565b9150613055826139e4565b604082019050919050565b600061306d601c83613626565b915061307882613a33565b602082019050919050565b6000613090602483613626565b915061309b82613a5c565b604082019050919050565b60006130b3601983613626565b91506130be82613aab565b602082019050919050565b60006130d6602c83613626565b91506130e182613ad4565b604082019050919050565b60006130f9603883613626565b915061310482613b23565b604082019050919050565b600061311c602a83613626565b915061312782613b72565b604082019050919050565b600061313f602983613626565b915061314a82613bc1565b604082019050919050565b6000613162602083613626565b915061316d82613c10565b602082019050919050565b6000613185602c83613626565b915061319082613c39565b604082019050919050565b60006131a8602c83613626565b91506131b382613c88565b604082019050919050565b60006131cb602f83613626565b91506131d682613cd7565b604082019050919050565b60006131ee602183613626565b91506131f982613d26565b604082019050919050565b6000613211603183613626565b915061321c82613d75565b604082019050919050565b6132308161375c565b82525050565b60006132428284612f29565b915081905092915050565b60006020820190506132626000830184612e5d565b92915050565b600060808201905061327d6000830187612e5d565b61328a6020830186612e5d565b6132976040830185613227565b81810360608301526132a98184612ef0565b905095945050505050565b600060208201905081810360008301526132ce8184612e6c565b905092915050565b60006020820190506132eb6000830184612ee1565b92915050565b6000602082019050818103600083015261330b8184612fe1565b905092915050565b6000602082019050818103600083015261332c8161301a565b9050919050565b6000602082019050818103600083015261334c8161303d565b9050919050565b6000602082019050818103600083015261336c81613060565b9050919050565b6000602082019050818103600083015261338c81613083565b9050919050565b600060208201905081810360008301526133ac816130a6565b9050919050565b600060208201905081810360008301526133cc816130c9565b9050919050565b600060208201905081810360008301526133ec816130ec565b9050919050565b6000602082019050818103600083015261340c8161310f565b9050919050565b6000602082019050818103600083015261342c81613132565b9050919050565b6000602082019050818103600083015261344c81613155565b9050919050565b6000602082019050818103600083015261346c81613178565b9050919050565b6000602082019050818103600083015261348c8161319b565b9050919050565b600060208201905081810360008301526134ac816131be565b9050919050565b600060208201905081810360008301526134cc816131e1565b9050919050565b600060208201905081810360008301526134ec81613204565b9050919050565b60006020820190506135086000830184613227565b92915050565b6000613518613529565b905061352482826137da565b919050565b6000604051905090565b600067ffffffffffffffff82111561354e5761354d613941565b5b61355782613984565b9050602081019050919050565b600067ffffffffffffffff82111561357f5761357e613941565b5b61358882613984565b9050602081019050919050565b6000819050602082019050919050565b60008190508160005260206000209050919050565b600081519050919050565b600081519050919050565b600081519050919050565b6000602082019050919050565b600082825260208201905092915050565b600082825260208201905092915050565b600081905092915050565b600082825260208201905092915050565b600082825260208201905092915050565b60006136428261375c565b915061364d8361375c565b9250827fffffffffffffffffffffffffffffffffffffffffffffffffffffffffffffffff0382111561368257613681613885565b5b828201905092915050565b60006136988261375c565b91506136a38361375c565b9250826136b3576136b26138b4565b5b828204905092915050565b60006136c98261375c565b91506136d48361375c565b9250828210156136e7576136e6613885565b5b828203905092915050565b60006136fd8261373c565b9050919050565b60008115159050919050565b60007fffffffff0000000000000000000000000000000000000000000000000000000082169050919050565b600073ffffffffffffffffffffffffffffffffffffffff82169050919050565b6000819050919050565b82818337600083830152505050565b60005b83811015613793578082015181840152602081019050613778565b838111156137a2576000848401525b50505050565b600060028204905060018216806137c057607f821691505b602082108114156137d4576137d36138e3565b5b50919050565b6137e382613984565b810181811067ffffffffffffffff8211171561380257613801613941565b5b80604052505050565b60006138168261375c565b91507fffffffffffffffffffffffffffffffffffffffffffffffffffffffffffffffff82141561384957613848613885565b5b600182019050919050565b600061385f8261375c565b915061386a8361375c565b92508261387a576138796138b4565b5b828206905092915050565b7f4e487b7100000000000000000000000000000000000000000000000000000000600052601160045260246000fd5b7f4e487b7100000000000000000000000000000000000000000000000000000000600052601260045260246000fd5b7f4e487b7100000000000000000000000000000000000000000000000000000000600052602260045260246000fd5b7f4e487b7100000000000000000000000000000000000000000000000000000000600052603260045260246000fd5b7f4e487b7100000000000000000000000000000000000000000000000000000000600052604160045260246000fd5b600080fd5b600080fd5b600080fd5b600080fd5b6000601f19601f8301169050919050565b7f4552433732313a207472616e7366657220746f206e6f6e20455243373231526560008201527f63656976657220696d706c656d656e7465720000000000000000000000000000602082015250565b7f4552433732313a207472616e736665722066726f6d20696e636f72726563742060008201527f6f776e6572000000000000000000000000000000000000000000000000000000602082015250565b7f4552433732313a20746f6b656e20616c7265616479206d696e74656400000000600082015250565b7f4552433732313a207472616e7366657220746f20746865207a65726f2061646460008201527f7265737300000000000000000000000000000000000000000000000000000000602082015250565b7f4552433732313a20617070726f766520746f2063616c6c657200000000000000600082015250565b7f4552433732313a206f70657261746f7220717565727920666f72206e6f6e657860008201527f697374656e7420746f6b656e0000000000000000000000000000000000000000602082015250565b7f4552433732313a20617070726f76652063616c6c6572206973206e6f74206f7760008201527f6e6572206e6f7220617070726f76656420666f7220616c6c0000000000000000602082015250565b7f4552433732313a2062616c616e636520717565727920666f7220746865207a6560008201527f726f206164647265737300000000000000000000000000000000000000000000602082015250565b7f4552433732313a206f776e657220717565727920666f72206e6f6e657869737460008201527f656e7420746f6b656e0000000000000000000000000000000000000000000000602082015250565b7f4552433732313a206d696e7420746f20746865207a65726f2061646472657373600082015250565b7f4552433732313a20617070726f76656420717565727920666f72206e6f6e657860008201527f697374656e7420746f6b656e0000000000000000000000000000000000000000602082015250565b7f4552433732314d657461646174613a2055524920736574206f66206e6f6e657860008201527f697374656e7420746f6b656e0000000000000000000000000000000000000000602082015250565b7f4552433732314d657461646174613a2055524920717565727920666f72206e6f60008201527f6e6578697374656e7420746f6b656e0000000000000000000000000000000000602082015250565b7f4552433732313a20617070726f76616c20746f2063757272656e74206f776e6560008201527f7200000000000000000000000000000000000000000000000000000000000000602082015250565b7f4552433732313a207472616e736665722063616c6c6572206973206e6f74206f60008201527f776e6572206e6f7220617070726f766564000000000000000000000000000000602082015250565b613dcd816136f2565b8114613dd857600080fd5b50565b613de481613704565b8114613def57600080fd5b50565b613dfb81613710565b8114613e0657600080fd5b50565b613e128161375c565b8114613e1d57600080fd5b5056fea2646970667358221220784788df436b6b4ac10c1da94fede602654228198dcdfcb323b53733d34e67aa64736f6c63430008060033",
  "devdoc": {
    "kind": "dev",
    "methods": {
      "approve(address,uint256)": {
        "details": "See {IERC721-approve}."
      },
      "balanceOf(address)": {
        "details": "See {IERC721-balanceOf}."
      },
      "getApproved(uint256)": {
        "details": "See {IERC721-getApproved}."
      },
      "isApprovedForAll(address,address)": {
        "details": "See {IERC721-isApprovedForAll}."
      },
      "name()": {
        "details": "See {IERC721Metadata-name}."
      },
      "ownerOf(uint256)": {
        "details": "See {IERC721-ownerOf}."
      },
      "safeTransferFrom(address,address,uint256)": {
        "details": "See {IERC721-safeTransferFrom}."
      },
      "safeTransferFrom(address,address,uint256,bytes)": {
        "details": "See {IERC721-safeTransferFrom}."
      },
      "setApprovalForAll(address,bool)": {
        "details": "See {IERC721-setApprovalForAll}."
      },
      "supportsInterface(bytes4)": {
        "details": "See {IERC165-supportsInterface}."
      },
      "symbol()": {
        "details": "See {IERC721Metadata-symbol}."
      },
      "tokenURI(uint256)": {
        "details": "See {IERC721Metadata-tokenURI}."
      },
      "transferFrom(address,address,uint256)": {
        "details": "See {IERC721-transferFrom}."
      }
    },
    "version": 1
  },
  "userdoc": {
    "kind": "user",
    "methods": {},
    "version": 1
  },
  "storageLayout": {
    "storage": [
      {
        "astId": 25,
        "contract": "contracts/CeloERC721.sol:CeloERC721",
        "label": "_name",
        "offset": 0,
        "slot": "0",
        "type": "t_string_storage"
      },
      {
        "astId": 27,
        "contract": "contracts/CeloERC721.sol:CeloERC721",
        "label": "_symbol",
        "offset": 0,
        "slot": "1",
        "type": "t_string_storage"
      },
      {
        "astId": 31,
        "contract": "contracts/CeloERC721.sol:CeloERC721",
        "label": "_owners",
        "offset": 0,
        "slot": "2",
        "type": "t_mapping(t_uint256,t_address)"
      },
      {
        "astId": 35,
        "contract": "contracts/CeloERC721.sol:CeloERC721",
        "label": "_balances",
        "offset": 0,
        "slot": "3",
        "type": "t_mapping(t_address,t_uint256)"
      },
      {
        "astId": 39,
        "contract": "contracts/CeloERC721.sol:CeloERC721",
        "label": "_tokenApprovals",
        "offset": 0,
        "slot": "4",
        "type": "t_mapping(t_uint256,t_address)"
      },
      {
        "astId": 45,
        "contract": "contracts/CeloERC721.sol:CeloERC721",
        "label": "_operatorApprovals",
        "offset": 0,
        "slot": "5",
        "type": "t_mapping(t_address,t_mapping(t_address,t_bool))"
      },
      {
        "astId": 1590,
        "contract": "contracts/CeloERC721.sol:CeloERC721",
        "label": "_tokenIds",
        "offset": 0,
        "slot": "6",
        "type": "t_uint256"
      },
      {
        "astId": 1592,
        "contract": "contracts/CeloERC721.sol:CeloERC721",
        "label": "_bidIds",
        "offset": 0,
        "slot": "7",
        "type": "t_uint256"
      },
      {
        "astId": 1594,
        "contract": "contracts/CeloERC721.sol:CeloERC721",
        "label": "_eventIds",
        "offset": 0,
        "slot": "8",
        "type": "t_uint256"
      },
      {
        "astId": 1596,
        "contract": "contracts/CeloERC721.sol:CeloERC721",
        "label": "_EventTokenIds",
        "offset": 0,
        "slot": "9",
        "type": "t_uint256"
      },
      {
        "astId": 1598,
        "contract": "contracts/CeloERC721.sol:CeloERC721",
        "label": "_TokenBidIds",
        "offset": 0,
        "slot": "10",
        "type": "t_uint256"
      },
      {
        "astId": 1602,
        "contract": "contracts/CeloERC721.sol:CeloERC721",
        "label": "data1",
        "offset": 0,
        "slot": "11",
        "type": "t_array(t_string_storage)2_storage"
      },
      {
        "astId": 1604,
        "contract": "contracts/CeloERC721.sol:CeloERC721",
        "label": "_EventTokenSearchIds",
        "offset": 0,
        "slot": "13",
        "type": "t_uint256"
      },
      {
        "astId": 1610,
        "contract": "contracts/CeloERC721.sol:CeloERC721",
        "label": "AllEventTokens",
        "offset": 0,
        "slot": "14",
        "type": "t_mapping(t_uint256,t_array(t_string_storage)2_storage)"
      },
      {
        "astId": 1616,
        "contract": "contracts/CeloERC721.sol:CeloERC721",
        "label": "AllTokensBids",
        "offset": 0,
        "slot": "15",
        "type": "t_mapping(t_uint256,t_array(t_string_storage)2_storage)"
      },
      {
        "astId": 1622,
        "contract": "contracts/CeloERC721.sol:CeloERC721",
        "label": "_SearchedStore",
        "offset": 0,
        "slot": "16",
        "type": "t_mapping(t_uint256,t_array(t_string_storage)2_storage)"
      },
      {
        "astId": 1626,
        "contract": "contracts/CeloERC721.sol:CeloERC721",
        "label": "_bidURIs",
        "offset": 0,
        "slot": "17",
        "type": "t_mapping(t_uint256,t_string_storage)"
      },
      {
        "astId": 1630,
        "contract": "contracts/CeloERC721.sol:CeloERC721",
        "label": "_tokenURIs",
        "offset": 0,
        "slot": "18",
        "type": "t_mapping(t_uint256,t_string_storage)"
      },
      {
        "astId": 1634,
        "contract": "contracts/CeloERC721.sol:CeloERC721",
        "label": "_eventURIs",
        "offset": 0,
        "slot": "19",
        "type": "t_mapping(t_uint256,t_string_storage)"
      },
      {
        "astId": 1638,
        "contract": "contracts/CeloERC721.sol:CeloERC721",
        "label": "_eventTokens",
        "offset": 0,
        "slot": "20",
        "type": "t_mapping(t_string_memory_ptr,t_string_storage)"
      }
    ],
    "types": {
      "t_address": {
        "encoding": "inplace",
        "label": "address",
        "numberOfBytes": "20"
      },
      "t_array(t_string_storage)2_storage": {
        "base": "t_string_storage",
        "encoding": "inplace",
        "label": "string[2]",
        "numberOfBytes": "64"
      },
      "t_bool": {
        "encoding": "inplace",
        "label": "bool",
        "numberOfBytes": "1"
      },
      "t_mapping(t_address,t_bool)": {
        "encoding": "mapping",
        "key": "t_address",
        "label": "mapping(address => bool)",
        "numberOfBytes": "32",
        "value": "t_bool"
      },
      "t_mapping(t_address,t_mapping(t_address,t_bool))": {
        "encoding": "mapping",
        "key": "t_address",
        "label": "mapping(address => mapping(address => bool))",
        "numberOfBytes": "32",
        "value": "t_mapping(t_address,t_bool)"
      },
      "t_mapping(t_address,t_uint256)": {
        "encoding": "mapping",
        "key": "t_address",
        "label": "mapping(address => uint256)",
        "numberOfBytes": "32",
        "value": "t_uint256"
      },
      "t_mapping(t_string_memory_ptr,t_string_storage)": {
        "encoding": "mapping",
        "key": "t_string_memory_ptr",
        "label": "mapping(string => string)",
        "numberOfBytes": "32",
        "value": "t_string_storage"
      },
      "t_mapping(t_uint256,t_address)": {
        "encoding": "mapping",
        "key": "t_uint256",
        "label": "mapping(uint256 => address)",
        "numberOfBytes": "32",
        "value": "t_address"
      },
      "t_mapping(t_uint256,t_array(t_string_storage)2_storage)": {
        "encoding": "mapping",
        "key": "t_uint256",
        "label": "mapping(uint256 => string[2])",
        "numberOfBytes": "32",
        "value": "t_array(t_string_storage)2_storage"
      },
      "t_mapping(t_uint256,t_string_storage)": {
        "encoding": "mapping",
        "key": "t_uint256",
        "label": "mapping(uint256 => string)",
        "numberOfBytes": "32",
        "value": "t_string_storage"
      },
      "t_string_memory_ptr": {
        "encoding": "bytes",
        "label": "string",
        "numberOfBytes": "32"
      },
      "t_string_storage": {
        "encoding": "bytes",
        "label": "string",
        "numberOfBytes": "32"
      },
      "t_uint256": {
        "encoding": "inplace",
        "label": "uint256",
        "numberOfBytes": "32"
      }
    }
  }
}